{"abi":[{"type":"constructor","inputs":[],"stateMutability":"nonpayable"},{"type":"function","name":"addDrug","inputs":[{"name":"_name","type":"string","internalType":"string"},{"name":"_quantity","type":"uint256","internalType":"uint256"},{"name":"_status","type":"uint8","internalType":"enum drugTracker.Status"},{"name":"_location","type":"string","internalType":"string"},{"name":"_expirationDate","type":"uint256","internalType":"uint256"}],"outputs":[],"stateMutability":"nonpayable"},{"type":"function","name":"admin","inputs":[],"outputs":[{"name":"","type":"address","internalType":"address"}],"stateMutability":"view"},{"type":"function","name":"checkExpiration","inputs":[{"name":"_drugId","type":"uint256","internalType":"uint256"}],"outputs":[{"name":"","type":"bool","internalType":"bool"}],"stateMutability":"view"},{"type":"function","name":"drugCount","inputs":[],"outputs":[{"name":"","type":"uint256","internalType":"uint256"}],"stateMutability":"view"},{"type":"function","name":"drugs","inputs":[{"name":"","type":"uint256","internalType":"uint256"}],"outputs":[{"name":"name","type":"string","internalType":"string"},{"name":"quantity","type":"uint256","internalType":"uint256"},{"name":"status","type":"uint8","internalType":"enum drugTracker.Status"},{"name":"location","type":"string","internalType":"string"},{"name":"expirationDate","type":"uint256","internalType":"uint256"},{"name":"owner","type":"address","internalType":"address"}],"stateMutability":"view"},{"type":"function","name":"getDrugCountByLocation","inputs":[{"name":"_location","type":"string","internalType":"string"}],"outputs":[{"name":"","type":"uint256","internalType":"uint256"}],"stateMutability":"view"},{"type":"function","name":"getDrugCountByStatus","inputs":[{"name":"_status","type":"uint8","internalType":"enum drugTracker.Status"}],"outputs":[{"name":"","type":"uint256","internalType":"uint256"}],"stateMutability":"view"},{"type":"function","name":"getDrugDetails","inputs":[{"name":"_drugId","type":"uint256","internalType":"uint256"}],"outputs":[{"name":"","type":"string","internalType":"string"},{"name":"","type":"uint256","internalType":"uint256"},{"name":"","type":"uint8","internalType":"enum drugTracker.Status"},{"name":"","type":"string","internalType":"string"},{"name":"","type":"uint256","internalType":"uint256"},{"name":"","type":"address","internalType":"address"}],"stateMutability":"view"},{"type":"function","name":"getOwnerInventory","inputs":[{"name":"_owner","type":"address","internalType":"address"}],"outputs":[{"name":"","type":"uint256","internalType":"uint256"},{"name":"","type":"string","internalType":"string"}],"stateMutability":"view"},{"type":"function","name":"owners","inputs":[{"name":"","type":"address","internalType":"address"}],"outputs":[{"name":"count","type":"uint256","internalType":"uint256"},{"name":"location","type":"string","internalType":"string"}],"stateMutability":"view"},{"type":"function","name":"transferDrug","inputs":[{"name":"_drugId","type":"uint256","internalType":"uint256"},{"name":"_newOwner","type":"address","internalType":"address"},{"name":"_quantity","type":"uint256","internalType":"uint256"}],"outputs":[],"stateMutability":"nonpayable"},{"type":"function","name":"updateDrugLocation","inputs":[{"name":"_drugId","type":"uint256","internalType":"uint256"},{"name":"_newLocation","type":"string","internalType":"string"}],"outputs":[],"stateMutability":"nonpayable"},{"type":"function","name":"updateDrugQuantity","inputs":[{"name":"_drugId","type":"uint256","internalType":"uint256"},{"name":"_newQuantity","type":"uint256","internalType":"uint256"}],"outputs":[],"stateMutability":"nonpayable"},{"type":"function","name":"updateDrugStatus","inputs":[{"name":"_drugId","type":"uint256","internalType":"uint256"},{"name":"_status","type":"uint8","internalType":"enum drugTracker.Status"}],"outputs":[],"stateMutability":"nonpayable"},{"type":"event","name":"DrugTransferred","inputs":[{"name":"drugId","type":"uint256","indexed":false,"internalType":"uint256"},{"name":"from","type":"address","indexed":false,"internalType":"address"},{"name":"to","type":"address","indexed":false,"internalType":"address"},{"name":"quantity","type":"uint256","indexed":false,"internalType":"uint256"},{"name":"newLocation","type":"string","indexed":false,"internalType":"string"}],"anonymous":false}],"bytecode":{"object":"0x6080604052348015600e575f5ffd5b50600280546001600160a01b031916331790556111bc8061002e5f395ff3fe608060405234801561000f575f5ffd5b50600436106100e5575f3560e01c8063723931ca11610088578063c4d2251e11610063578063c4d2251e146101f7578063cf0eeb751461020a578063f851a4401461021d578063fca5e61e14610248575f5ffd5b8063723931ca146101a75780637577ca37146101db5780639682ee49146101e4575f5ffd5b8063374048e2116100c3578063374048e21461013b578063425944631461015c57806360ee0b6d1461016f578063674192f814610194575f5ffd5b8063022914a7146100e95780631f73eb72146101135780632095a0e414610128575b5f5ffd5b6100fc6100f7366004610bde565b61025b565b60405161010a929190610c2c565b60405180910390f35b610126610121366004610c4c565b6102fc565b005b610126610136366004610c7f565b61045a565b61014e610149366004610cad565b610501565b60405190815260200161010a565b61014e61016a366004610d65565b610582565b61018261017d366004610d97565b61061f565b60405161010a96959493929190610dc2565b6101266101a2366004610e32565b610793565b6101cb6101b5366004610d97565b5f90815260208190526040902060040154421190565b604051901515815260200161010a565b61014e60035481565b6100fc6101f2366004610bde565b6107de565b610126610205366004610e76565b610896565b610126610218366004610efb565b610a10565b600254610230906001600160a01b031681565b6040516001600160a01b03909116815260200161010a565b610182610256366004610d97565b610a72565b600160208190525f91825260409091208054918101805461027b90610f25565b80601f01602080910402602001604051908101604052809291908181526020018280546102a790610f25565b80156102f25780601f106102c9576101008083540402835291602001916102f2565b820191905f5260205f20905b8154815290600101906020018083116102d557829003601f168201915b5050505050905082565b5f83815260208190526040902060058101546001600160a01b031633146103765760405162461bcd60e51b815260206004820152602360248201527f596f7520617265206e6f7420746865206f776e6572206f6620746869732064726044820152623ab39760e91b60648201526084015b60405180910390fd5b81816001015410156103ca5760405162461bcd60e51b815260206004820181905260248201527f4e6f7420656e6f756768207175616e7469747920746f207472616e736665722e604482015260640161036d565b81816001015f8282546103dd9190610f71565b909155505060058101546001600160a01b03165f908152600160205260408120805484929061040d908490610f71565b90915550506005810180546001600160a01b0319166001600160a01b0385169081179091555f908152600160205260408120805484929061044f908490610f8a565b909155505050505050565b6002546001600160a01b031633146104845760405162461bcd60e51b815260040161036d90610f9d565b5f8281526020818152604080832060018082015460058301546001600160a01b0316865293529083208054919390916104be908490610f71565b9091555050600180820183905560058201546001600160a01b03165f9081526020919091526040812080548492906104f7908490610f8a565b9091555050505050565b5f8060015b600354811161057b5783600481111561052157610521610dae565b5f8281526020819052604090206002015460ff16600481111561054657610546610dae565b03610569575f818152602081905260409020600101546105669083610f8a565b91505b8061057381610fe0565b915050610506565b5092915050565b5f8060015b600354811161057b57836040516020016105a19190610ff8565b60408051601f1981840301815282825280516020918201205f8581528083529290922091926105d492600301910161100e565b604051602081830303815290604052805190602001200361060d575f8181526020819052604090206001015461060a9083610f8a565b91505b8061061781610fe0565b915050610587565b5f818152602081905260408120600181015460028201546004830154600584015484546060969586958895879586959394859460ff909316926003860192916001600160a01b0390911690869061067590610f25565b80601f01602080910402602001604051908101604052809291908181526020018280546106a190610f25565b80156106ec5780601f106106c3576101008083540402835291602001916106ec565b820191905f5260205f20905b8154815290600101906020018083116106cf57829003601f168201915b505050505095508280546106ff90610f25565b80601f016020809104026020016040519081016040528092919081815260200182805461072b90610f25565b80156107765780601f1061074d57610100808354040283529160200191610776565b820191905f5260205f20905b81548152906001019060200180831161075957829003601f168201915b505050505092509650965096509650965096505091939550919395565b6002546001600160a01b031633146107bd5760405162461bcd60e51b815260040161036d90610f9d565b5f828152602081905260409020600381016107d883826110cb565b50505050565b6001600160a01b0381165f9081526001602081905260408220805491810180546060939190819061080e90610f25565b80601f016020809104026020016040519081016040528092919081815260200182805461083a90610f25565b80156108855780601f1061085c57610100808354040283529160200191610885565b820191905f5260205f20905b81548152906001019060200180831161086857829003601f168201915b505050505090509250925050915091565b6002546001600160a01b031633146108c05760405162461bcd60e51b815260040161036d90610f9d565b60038054905f6108cf83610fe0565b91905055506040518060c001604052808681526020018581526020018460048111156108fd576108fd610dae565b8152602080820185905260408083018590526002546001600160a01b03166060909301929092526003545f90815290819052208151819061093e90826110cb565b50602082015181600101556040820151816002015f6101000a81548160ff0219169083600481111561097257610972610dae565b02179055506060820151600382019061098b90826110cb565b506080820151600482015560a090910151600590910180546001600160a01b0319166001600160a01b03928316179055600254165f90815260016020526040812080548692906109dc908490610f8a565b90915550506002546001600160a01b03165f90815260016020819052604090912001610a0883826110cb565b505050505050565b6002546001600160a01b03163314610a3a5760405162461bcd60e51b815260040161036d90610f9d565b5f82815260208190526040902060028101805483919060ff19166001836004811115610a6857610a68610dae565b0217905550505050565b5f60208190529081526040902080548190610a8c90610f25565b80601f0160208091040260200160405190810160405280929190818152602001828054610ab890610f25565b8015610b035780601f10610ada57610100808354040283529160200191610b03565b820191905f5260205f20905b815481529060010190602001808311610ae657829003601f168201915b50505050600183015460028401546003850180549495929460ff909216935090610b2c90610f25565b80601f0160208091040260200160405190810160405280929190818152602001828054610b5890610f25565b8015610ba35780601f10610b7a57610100808354040283529160200191610ba3565b820191905f5260205f20905b815481529060010190602001808311610b8657829003601f168201915b5050505060048301546005909301549192916001600160a01b0316905086565b80356001600160a01b0381168114610bd9575f5ffd5b919050565b5f60208284031215610bee575f5ffd5b610bf782610bc3565b9392505050565b5f81518084528060208401602086015e5f602082860101526020601f19601f83011685010191505092915050565b828152604060208201525f610c446040830184610bfe565b949350505050565b5f5f5f60608486031215610c5e575f5ffd5b83359250610c6e60208501610bc3565b929592945050506040919091013590565b5f5f60408385031215610c90575f5ffd5b50508035926020909101359150565b803560058110610bd9575f5ffd5b5f60208284031215610cbd575f5ffd5b610bf782610c9f565b634e487b7160e01b5f52604160045260245ffd5b5f82601f830112610ce9575f5ffd5b813567ffffffffffffffff811115610d0357610d03610cc6565b604051601f8201601f19908116603f0116810167ffffffffffffffff81118282101715610d3257610d32610cc6565b604052818152838201602001851015610d49575f5ffd5b816020850160208301375f918101602001919091529392505050565b5f60208284031215610d75575f5ffd5b813567ffffffffffffffff811115610d8b575f5ffd5b610c4484828501610cda565b5f60208284031215610da7575f5ffd5b5035919050565b634e487b7160e01b5f52602160045260245ffd5b60c081525f610dd460c0830189610bfe565b87602084015260058710610df657634e487b7160e01b5f52602160045260245ffd5b8660408401528281036060840152610e0e8187610bfe565b608084019590955250506001600160a01b039190911660a090910152949350505050565b5f5f60408385031215610e43575f5ffd5b82359150602083013567ffffffffffffffff811115610e60575f5ffd5b610e6c85828601610cda565b9150509250929050565b5f5f5f5f5f60a08688031215610e8a575f5ffd5b853567ffffffffffffffff811115610ea0575f5ffd5b610eac88828901610cda565b95505060208601359350610ec260408701610c9f565b9250606086013567ffffffffffffffff811115610edd575f5ffd5b610ee988828901610cda565b95989497509295608001359392505050565b5f5f60408385031215610f0c575f5ffd5b82359150610f1c60208401610c9f565b90509250929050565b600181811c90821680610f3957607f821691505b602082108103610f5757634e487b7160e01b5f52602260045260245ffd5b50919050565b634e487b7160e01b5f52601160045260245ffd5b81810381811115610f8457610f84610f5d565b92915050565b80820180821115610f8457610f84610f5d565b60208082526023908201527f4f6e6c792061646d696e2063616e20706572666f726d2074686973206163746960408201526237b71760e91b606082015260800190565b5f60018201610ff157610ff1610f5d565b5060010190565b5f82518060208501845e5f920191825250919050565b5f5f835461101b81610f25565b600182168015611032576001811461104757611074565b60ff1983168652811515820286019350611074565b865f5260205f205f5b8381101561106c57815488820152600190910190602001611050565b505081860193505b509195945050505050565b601f8211156110c657805f5260205f20601f840160051c810160208510156110a45750805b601f840160051c820191505b818110156110c3575f81556001016110b0565b50505b505050565b815167ffffffffffffffff8111156110e5576110e5610cc6565b6110f9816110f38454610f25565b8461107f565b6020601f82116001811461112b575f83156111145750848201515b5f19600385901b1c1916600184901b1784556110c3565b5f84815260208120601f198516915b8281101561115a578785015182556020948501946001909201910161113a565b508482101561117757868401515f19600387901b60f8161c191681555b50505050600190811b0190555056fea264697066735822122037d6ded3fba2a1f75d09a6aa87c89a7adf920494e4af57b7050183b30554874964736f6c634300081c0033","linkReferences":{}},"methodIdentifiers":{"addDrug(string,uint256,uint8,string,uint256)":"c4d2251e","admin()":"f851a440","checkExpiration(uint256)":"723931ca","drugCount()":"7577ca37","drugs(uint256)":"fca5e61e","getDrugCountByLocation(string)":"42594463","getDrugCountByStatus(uint8)":"374048e2","getDrugDetails(uint256)":"60ee0b6d","getOwnerInventory(address)":"9682ee49","owners(address)":"022914a7","transferDrug(uint256,address,uint256)":"1f73eb72","updateDrugLocation(uint256,string)":"674192f8","updateDrugQuantity(uint256,uint256)":"2095a0e4","updateDrugStatus(uint256,uint8)":"cf0eeb75"},"id":0}